{
  "contractName": "MyPermissionModule",
  "abi": [
    {
      "anonymous": false,
      "inputs": [
        {
          "indexed": false,
          "internalType": "address",
          "name": "masterCopy",
          "type": "address"
        }
      ],
      "name": "ChangedMasterCopy",
      "type": "event"
    },
    {
      "constant": true,
      "inputs": [],
      "name": "NAME",
      "outputs": [
        {
          "internalType": "string",
          "name": "",
          "type": "string"
        }
      ],
      "payable": false,
      "stateMutability": "view",
      "type": "function"
    },
    {
      "constant": true,
      "inputs": [],
      "name": "VERSION",
      "outputs": [
        {
          "internalType": "string",
          "name": "",
          "type": "string"
        }
      ],
      "payable": false,
      "stateMutability": "view",
      "type": "function"
    },
    {
      "constant": true,
      "inputs": [],
      "name": "admin",
      "outputs": [
        {
          "internalType": "address",
          "name": "",
          "type": "address"
        }
      ],
      "payable": false,
      "stateMutability": "view",
      "type": "function"
    },
    {
      "constant": false,
      "inputs": [
        {
          "internalType": "address",
          "name": "_masterCopy",
          "type": "address"
        }
      ],
      "name": "changeMasterCopy",
      "outputs": [],
      "payable": false,
      "stateMutability": "nonpayable",
      "type": "function"
    },
    {
      "constant": true,
      "inputs": [
        {
          "internalType": "address",
          "name": "",
          "type": "address"
        },
        {
          "internalType": "address",
          "name": "",
          "type": "address"
        }
      ],
      "name": "isWhitelisted",
      "outputs": [
        {
          "internalType": "bool",
          "name": "granted",
          "type": "bool"
        },
        {
          "internalType": "uint256",
          "name": "expireDate",
          "type": "uint256"
        },
        {
          "internalType": "uint256",
          "name": "allowanceAmount",
          "type": "uint256"
        }
      ],
      "payable": false,
      "stateMutability": "view",
      "type": "function"
    },
    {
      "constant": true,
      "inputs": [],
      "name": "manager",
      "outputs": [
        {
          "internalType": "contract ModuleManager",
          "name": "",
          "type": "address"
        }
      ],
      "payable": false,
      "stateMutability": "view",
      "type": "function"
    },
    {
      "constant": false,
      "inputs": [
        {
          "internalType": "address",
          "name": "_admin",
          "type": "address"
        },
        {
          "internalType": "address[]",
          "name": "newAssistants",
          "type": "address[]"
        }
      ],
      "name": "setup",
      "outputs": [],
      "payable": false,
      "stateMutability": "nonpayable",
      "type": "function"
    },
    {
      "constant": false,
      "inputs": [
        {
          "internalType": "address",
          "name": "assistant",
          "type": "address"
        },
        {
          "internalType": "bool",
          "name": "value",
          "type": "bool"
        }
      ],
      "name": "setAssistant",
      "outputs": [],
      "payable": false,
      "stateMutability": "nonpayable",
      "type": "function"
    },
    {
      "constant": false,
      "inputs": [
        {
          "internalType": "address",
          "name": "assistant",
          "type": "address"
        },
        {
          "internalType": "address",
          "name": "account",
          "type": "address"
        },
        {
          "internalType": "bool",
          "name": "granted",
          "type": "bool"
        },
        {
          "internalType": "uint256",
          "name": "expireDate",
          "type": "uint256"
        },
        {
          "internalType": "uint256",
          "name": "allowanceAmount",
          "type": "uint256"
        },
        {
          "internalType": "uint256",
          "name": "oldAllowanceAmount",
          "type": "uint256"
        }
      ],
      "name": "updatePermission",
      "outputs": [],
      "payable": false,
      "stateMutability": "nonpayable",
      "type": "function"
    },
    {
      "constant": false,
      "inputs": [
        {
          "internalType": "address",
          "name": "to",
          "type": "address"
        },
        {
          "internalType": "uint256",
          "name": "value",
          "type": "uint256"
        },
        {
          "internalType": "bytes",
          "name": "data",
          "type": "bytes"
        }
      ],
      "name": "executeByAssistantWhitelisted",
      "outputs": [
        {
          "internalType": "bool",
          "name": "",
          "type": "bool"
        }
      ],
      "payable": false,
      "stateMutability": "nonpayable",
      "type": "function"
    }
  ],
  "bytecode": "0x608060405234801561001057600080fd5b50611646806100206000396000f3fe608060405234801561001057600080fd5b506004361061009e5760003560e01c8063ade2c30611610066578063ade2c3061461033f578063b6b352721461038f578063bb00672414610419578063f851a440146104f1578063ffa1ad741461053b5761009e565b8063481c6a75146100a35780634b3c5de3146100ed5780637de7edef146101ea5780639cc862771461022e578063a3f4df7e146102bc575b600080fd5b6100ab6105be565b604051808273ffffffffffffffffffffffffffffffffffffffff1673ffffffffffffffffffffffffffffffffffffffff16815260200191505060405180910390f35b6101d06004803603606081101561010357600080fd5b81019080803573ffffffffffffffffffffffffffffffffffffffff169060200190929190803590602001909291908035906020019064010000000081111561014a57600080fd5b82018360208201111561015c57600080fd5b8035906020019184600183028401116401000000008311171561017e57600080fd5b91908080601f016020809104026020016040519081016040528093929190818152602001838380828437600081840152601f19601f8201169050808301925050505050505091929192905050506105e4565b604051808215151515815260200191505060405180910390f35b61022c6004803603602081101561020057600080fd5b81019080803573ffffffffffffffffffffffffffffffffffffffff169060200190929190505050610c65565b005b6102ba600480360360c081101561024457600080fd5b81019080803573ffffffffffffffffffffffffffffffffffffffff169060200190929190803573ffffffffffffffffffffffffffffffffffffffff169060200190929190803515159060200190929190803590602001909291908035906020019092919080359060200190929190505050610e37565b005b6102c4611047565b6040518080602001828103825283818151815260200191508051906020019080838360005b838110156103045780820151818401526020810190506102e9565b50505050905090810190601f1680156103315780820380516001836020036101000a031916815260200191505b509250505060405180910390f35b61038d6004803603604081101561035557600080fd5b81019080803573ffffffffffffffffffffffffffffffffffffffff169060200190929190803515159060200190929190505050611080565b005b6103f1600480360360408110156103a557600080fd5b81019080803573ffffffffffffffffffffffffffffffffffffffff169060200190929190803573ffffffffffffffffffffffffffffffffffffffff169060200190929190505050611224565b6040518084151515158152602001838152602001828152602001935050505060405180910390f35b6104ef6004803603604081101561042f57600080fd5b81019080803573ffffffffffffffffffffffffffffffffffffffff1690602001909291908035906020019064010000000081111561046c57600080fd5b82018360208201111561047e57600080fd5b803590602001918460208302840111640100000000831117156104a057600080fd5b919080806020026020016040519081016040528093929190818152602001838360200280828437600081840152601f19601f820116905080830192505050505050509192919290505050611268565b005b6104f96113c9565b604051808273ffffffffffffffffffffffffffffffffffffffff1673ffffffffffffffffffffffffffffffffffffffff16815260200191505060405180910390f35b6105436113ef565b6040518080602001828103825283818151815260200191508051906020019080838360005b83811015610583578082015181840152602081019050610568565b50505050905090810190601f1680156105b05780820380516001836020036101000a031916815260200191505b509250505060405180910390f35b600160009054906101000a900473ffffffffffffffffffffffffffffffffffffffff1681565b600060011515600360003373ffffffffffffffffffffffffffffffffffffffff1673ffffffffffffffffffffffffffffffffffffffff16815260200190815260200160002060009054906101000a900460ff16151514806106925750600260009054906101000a900473ffffffffffffffffffffffffffffffffffffffff1673ffffffffffffffffffffffffffffffffffffffff163373ffffffffffffffffffffffffffffffffffffffff16145b6106e7576040517f08c379a000000000000000000000000000000000000000000000000000000000815260040180806020018281038252602f815260200180611530602f913960400191505060405180910390fd5b6000339050600160009054906101000a900473ffffffffffffffffffffffffffffffffffffffff1673ffffffffffffffffffffffffffffffffffffffff16632f54bf6e826040518263ffffffff1660e01b8152600401808273ffffffffffffffffffffffffffffffffffffffff1673ffffffffffffffffffffffffffffffffffffffff16815260200191505060206040518083038186803b15801561078b57600080fd5b505afa15801561079f573d6000803e3d6000fd5b505050506040513d60208110156107b557600080fd5b810190808051906020019092919050505061081b576040517f08c379a00000000000000000000000000000000000000000000000000000000081526004018080602001828103825260258152602001806115836025913960400191505060405180910390fd5b600260009054906101000a900473ffffffffffffffffffffffffffffffffffffffff1673ffffffffffffffffffffffffffffffffffffffff168173ffffffffffffffffffffffffffffffffffffffff1614610a83576000600460008373ffffffffffffffffffffffffffffffffffffffff1673ffffffffffffffffffffffffffffffffffffffff16815260200190815260200160002060008773ffffffffffffffffffffffffffffffffffffffff1673ffffffffffffffffffffffffffffffffffffffff1681526020019081526020016000209050600115158160000160009054906101000a900460ff1615151461097b576040517f08c379a000000000000000000000000000000000000000000000000000000000815260040180806020018281038252601d8152602001807f546172676574206163636f756e74206973206e6f74206772616e74656400000081525060200191505060405180910390fd5b42816001015410156109f5576040517f08c379a000000000000000000000000000000000000000000000000000000000815260040180806020018281038252601b8152602001807f5065726d697373696f6e20686173206265656e2065787069726564000000000081525060200191505060405180910390fd5b8481600201541015610a6f576040517f08c379a000000000000000000000000000000000000000000000000000000000815260040180806020018281038252601e8152602001807f416c6c6f77616e636520416d6f756e74206973206e6f7420656e6f756768000081525060200191505060405180910390fd5b848160020160008282540392505081905550505b600160009054906101000a900473ffffffffffffffffffffffffffffffffffffffff1673ffffffffffffffffffffffffffffffffffffffff1663468721a786868660006040518563ffffffff1660e01b8152600401808573ffffffffffffffffffffffffffffffffffffffff1673ffffffffffffffffffffffffffffffffffffffff16815260200184815260200180602001836001811115610b2157fe5b60ff168152602001828103825284818151815260200191508051906020019080838360005b83811015610b61578082015181840152602081019050610b46565b50505050905090810190601f168015610b8e5780820380516001836020036101000a031916815260200191505b5095505050505050602060405180830381600087803b158015610bb057600080fd5b505af1158015610bc4573d6000803e3d6000fd5b505050506040513d6020811015610bda57600080fd5b8101908080519060200190929190505050610c5d576040517f08c379a000000000000000000000000000000000000000000000000000000000815260040180806020018281038252601d8152602001807f436f756c64206e6f742065786563757465207472616e73616374696f6e00000081525060200191505060405180910390fd5b509392505050565b600160009054906101000a900473ffffffffffffffffffffffffffffffffffffffff1673ffffffffffffffffffffffffffffffffffffffff163373ffffffffffffffffffffffffffffffffffffffff1614610d0b576040517f08c379a00000000000000000000000000000000000000000000000000000000081526004018080602001828103825260268152602001806115ec6026913960400191505060405180910390fd5b600073ffffffffffffffffffffffffffffffffffffffff168173ffffffffffffffffffffffffffffffffffffffff161415610d91576040517f08c379a000000000000000000000000000000000000000000000000000000000815260040180806020018281038252602481526020018061155f6024913960400191505060405180910390fd5b806000806101000a81548173ffffffffffffffffffffffffffffffffffffffff021916908373ffffffffffffffffffffffffffffffffffffffff1602179055507f75e41bc35ff1bf14d81d1d2f649c0084a0f974f9289c803ec9898eeec4c8d0b881604051808273ffffffffffffffffffffffffffffffffffffffff1673ffffffffffffffffffffffffffffffffffffffff16815260200191505060405180910390a150565b600260009054906101000a900473ffffffffffffffffffffffffffffffffffffffff1673ffffffffffffffffffffffffffffffffffffffff163373ffffffffffffffffffffffffffffffffffffffff1614610edd576040517f08c379a00000000000000000000000000000000000000000000000000000000081526004018080602001828103825260228152602001806115ca6022913960400191505060405180910390fd5b6000600460008873ffffffffffffffffffffffffffffffffffffffff1673ffffffffffffffffffffffffffffffffffffffff16815260200190815260200160002060008773ffffffffffffffffffffffffffffffffffffffff1673ffffffffffffffffffffffffffffffffffffffff168152602001908152602001600020905081816002015414610f6d57600080fd5b600073ffffffffffffffffffffffffffffffffffffffff168673ffffffffffffffffffffffffffffffffffffffff161415611010576040517f08c379a00000000000000000000000000000000000000000000000000000000081526004018080602001828103825260188152602001807f496e76616c6964206163636f756e742070726f7669646564000000000000000081525060200191505060405180910390fd5b848160000160006101000a81548160ff02191690831515021790555083816001018190555082816002018190555050505050505050565b6040518060400160405280601481526020017f4d79205065726d697373696f6e204d6f64756c6500000000000000000000000081525081565b600260009054906101000a900473ffffffffffffffffffffffffffffffffffffffff1673ffffffffffffffffffffffffffffffffffffffff163373ffffffffffffffffffffffffffffffffffffffff1614611126576040517f08c379a00000000000000000000000000000000000000000000000000000000081526004018080602001828103825260228152602001806115ca6022913960400191505060405180910390fd5b600073ffffffffffffffffffffffffffffffffffffffff168273ffffffffffffffffffffffffffffffffffffffff1614156111c9576040517f08c379a00000000000000000000000000000000000000000000000000000000081526004018080602001828103825260188152602001807f496e76616c6964206163636f756e742070726f7669646564000000000000000081525060200191505060405180910390fd5b80600360008473ffffffffffffffffffffffffffffffffffffffff1673ffffffffffffffffffffffffffffffffffffffff16815260200190815260200160002060006101000a81548160ff0219169083151502179055505050565b6004602052816000526040600020602052806000526040600020600091509150508060000160009054906101000a900460ff16908060010154908060020154905083565b611270611428565b81600260006101000a81548173ffffffffffffffffffffffffffffffffffffffff021916908373ffffffffffffffffffffffffffffffffffffffff16021790555060008090505b81518110156113c45760008282815181106112ce57fe5b60200260200101519050600073ffffffffffffffffffffffffffffffffffffffff168173ffffffffffffffffffffffffffffffffffffffff16141561135e576040517f08c379a00000000000000000000000000000000000000000000000000000000081526004018080602001828103825260228152602001806115a86022913960400191505060405180910390fd5b6001600360008373ffffffffffffffffffffffffffffffffffffffff1673ffffffffffffffffffffffffffffffffffffffff16815260200190815260200160002060006101000a81548160ff0219169083151502179055505080806001019150506112b7565b505050565b600260009054906101000a900473ffffffffffffffffffffffffffffffffffffffff1681565b6040518060400160405280600581526020017f302e312e3000000000000000000000000000000000000000000000000000000081525081565b600073ffffffffffffffffffffffffffffffffffffffff16600160009054906101000a900473ffffffffffffffffffffffffffffffffffffffff1673ffffffffffffffffffffffffffffffffffffffff16146114ec576040517f08c379a000000000000000000000000000000000000000000000000000000000815260040180806020018281038252601c8152602001807f4d616e616765722068617320616c7265616479206265656e207365740000000081525060200191505060405180910390fd5b33600160006101000a81548173ffffffffffffffffffffffffffffffffffffffff021916908373ffffffffffffffffffffffffffffffffffffffff16021790555056fe4f6e6c792061646d696e206f7220617373697374616e742063616e2063616c6c20746869732066756e6374696f6e2e496e76616c6964206d617374657220636f707920616464726573732070726f76696465644d6574686f642063616e206f6e6c792062652063616c6c656420627920616e206f776e6572496e76616c696420617373697374616e74206163636f756e742070726f76696465644f6e6c792061646d696e2063616e2063616c6c20746869732066756e6374696f6e2e4d6574686f642063616e206f6e6c792062652063616c6c65642066726f6d206d616e61676572a265627a7a72315820fd6ad3ac4e9fe14999f9101755496e30c769fea0da33ff9800d0ed0efddab4e164736f6c63430005110032",
  "source": "// SPDX-License-Identifier: LGPL-3.0-only\r\npragma solidity >=0.5.0 <0.7.0;\r\n\r\nimport \"@gnosis.pm/safe-contracts/contracts/base/Module.sol\";\r\nimport \"@gnosis.pm/safe-contracts/contracts/base/OwnerManager.sol\";\r\n\r\n\r\ninterface GnosisSafe {\r\n    /// @dev Allows a Module to execute a Safe transaction without any further confirmations.\r\n    /// @param to Destination address of module transaction.\r\n    /// @param value Ether value of module transaction.\r\n    /// @param data Data payload of module transaction.\r\n    /// @param operation Operation type of module transaction.\r\n    function execTransactionFromModule(address to, uint256 value, bytes calldata data, Enum.Operation operation)\r\n        external\r\n        returns (bool success);\r\n}\r\n\r\n\r\n// Reference: https://github.com/CirclesUBI/safe-contracts/blob/master/contracts/modules/WhitelistModule.sol\r\ncontract MyPermissionModule is Module{\r\n\r\n    string public constant NAME = \"My Permission Module\";\r\n    string public constant VERSION = \"0.1.0\";\r\n\r\n    address public admin;\r\n    mapping(address => bool) assistants;\r\n\r\n    struct PermissionDetail{\r\n        bool granted;\r\n        uint expireDate;\r\n        uint allowanceAmount;\r\n    }\r\n    // isWhitelisted mapping maps destination address to boolean.\r\n    mapping(address => mapping(address => PermissionDetail)) public isWhitelisted;\r\n\r\n    modifier onlyAdmin{\r\n        require(\r\n            msg.sender == admin,\r\n            \"Only admin can call this function.\"\r\n        );\r\n        _;\r\n    }\r\n\r\n    modifier onlyAdminOrAssistant {\r\n        require(\r\n            assistants[msg.sender] == true || msg.sender == admin,\r\n            \"Only admin or assistant can call this function.\"\r\n        );\r\n        _;\r\n    }\r\n\r\n    \r\n    function setup(address _admin, address[] memory newAssistants)\r\n        public\r\n    {\r\n        setManager();\r\n        admin = _admin;\r\n        // assign assistant\r\n        for (uint256 i = 0; i < newAssistants.length; i++) {\r\n            address assistant = newAssistants[i];\r\n            require(assistant != address(0), \"Invalid assistant account provided\");\r\n            assistants[assistant] = true;\r\n        }\r\n    }\r\n\r\n    function setAssistant(address assistant, bool value)\r\n        public\r\n        onlyAdmin\r\n    {\r\n        require(assistant != address(0), \"Invalid account provided\");\r\n        assistants[assistant] = value;\r\n    }\r\n\r\n    /// @dev Allows to add destination to whitelist. This can only be done by admin.\r\n    /// @param account Destination address.\r\n    function updatePermission(address assistant, address account, bool granted, uint expireDate, uint allowanceAmount, uint oldAllowanceAmount)\r\n        public\r\n        onlyAdmin\r\n    {\r\n        PermissionDetail storage permissionDetail = isWhitelisted[assistant][account];\r\n        require(permissionDetail.allowanceAmount == oldAllowanceAmount);\r\n        require(account != address(0), \"Invalid account provided\");\r\n        permissionDetail.granted = granted;\r\n        permissionDetail.expireDate = expireDate;\r\n        permissionDetail.allowanceAmount = allowanceAmount;\r\n    }\r\n\r\n\r\n\r\n\r\n\r\n    function executeByAssistantWhitelisted(address to, uint256 value, bytes memory data)\r\n        public\r\n        onlyAdminOrAssistant\r\n        returns (bool)\r\n    {\r\n        address sender = msg.sender;\r\n        require(OwnerManager(address(manager)).isOwner(sender), \"Method can only be called by an owner\");\r\n\r\n        if(sender != admin){\r\n            PermissionDetail storage permissionDetail = isWhitelisted[sender][to];\r\n            // validate the permissions\r\n            require(permissionDetail.granted == true, \"Target account is not granted\");\r\n            require(permissionDetail.expireDate >= block.timestamp, \"Permission has been expired\");\r\n            require(permissionDetail.allowanceAmount >= value, \"Allowance Amount is not enough\");\r\n            permissionDetail.allowanceAmount -= value;\r\n        }\r\n        require(manager.execTransactionFromModule(to, value, data, Enum.Operation.Call), \"Could not execute transaction\");\r\n    }\r\n\r\n\r\n}",
  "sourcePath": "C:\\Users\\Caleb\\Desktop\\school\\dapp2\\dhruvin\\safe-modules\\allowances\\contracts\\MyPermissionModule.sol",
  "compiler": {
    "name": "solc",
    "version": "0.5.17+commit.d19bba13.Emscripten.clang"
  },
  "schemaVersion": "3.4.2",
  "updatedAt": "2021-08-26T04:57:41.510Z",
  "networkType": "ethereum",
  "devdoc": {
    "methods": {
      "changeMasterCopy(address)": {
        "details": "Allows to upgrade the contract. This can only be done via a Safe transaction.",
        "params": {
          "_masterCopy": "New contract address."
        }
      },
      "updatePermission(address,address,bool,uint256,uint256,uint256)": {
        "details": "Allows to add destination to whitelist. This can only be done by admin.",
        "params": {
          "account": "Destination address."
        }
      }
    }
  },
  "userdoc": {
    "methods": {}
  }
}